{
  "_format": "hh-sol-artifact-1",
  "contractName": "Splitwise",
  "sourceName": "contracts/mycontract.sol",
  "abi": [
    {
      "inputs": [
        {
          "internalType": "address",
          "name": "creditor",
          "type": "address"
        },
        {
          "internalType": "uint32",
          "name": "amount",
          "type": "uint32"
        },
        {
          "internalType": "address[]",
          "name": "path",
          "type": "address[]"
        }
      ],
      "name": "add_IOU",
      "outputs": [],
      "stateMutability": "nonpayable",
      "type": "function"
    },
    {
      "inputs": [
        {
          "internalType": "address",
          "name": "debtor",
          "type": "address"
        }
      ],
      "name": "getCreditors",
      "outputs": [
        {
          "internalType": "address[]",
          "name": "",
          "type": "address[]"
        }
      ],
      "stateMutability": "view",
      "type": "function"
    },
    {
      "inputs": [
        {
          "internalType": "address",
          "name": "user",
          "type": "address"
        }
      ],
      "name": "getTotalOwed",
      "outputs": [
        {
          "internalType": "uint32",
          "name": "",
          "type": "uint32"
        }
      ],
      "stateMutability": "view",
      "type": "function"
    },
    {
      "inputs": [],
      "name": "getUsers",
      "outputs": [
        {
          "internalType": "address[]",
          "name": "",
          "type": "address[]"
        }
      ],
      "stateMutability": "view",
      "type": "function"
    },
    {
      "inputs": [
        {
          "internalType": "address",
          "name": "debtor",
          "type": "address"
        },
        {
          "internalType": "address",
          "name": "creditor",
          "type": "address"
        }
      ],
      "name": "lookup",
      "outputs": [
        {
          "internalType": "uint32",
          "name": "",
          "type": "uint32"
        }
      ],
      "stateMutability": "view",
      "type": "function"
    }
  ],
  "bytecode": "0x608060405234801561001057600080fd5b50611671806100206000396000f3fe608060405234801561001057600080fd5b50600436106100565760003560e01c8062ce8e3e1461005b578063713584a61461007957806373851075146100a95780638d8bea50146100d9578063dd033b8d14610109575b600080fd5b610063610125565b6040516100709190610faf565b60405180910390f35b610093600480360381019061008e9190611007565b6101b3565b6040516100a09190611066565b60405180910390f35b6100c360048036038101906100be9190611081565b61024a565b6040516100d09190611066565b60405180910390f35b6100f360048036038101906100ee9190611081565b6102fe565b6040516101009190610faf565b60405180910390f35b610123600480360381019061011e919061113f565b61055b565b005b606060008054806020026020016040519081016040528092919081815260200182805480156101a957602002820191906000526020600020905b8160009054906101000a900473ffffffffffffffffffffffffffffffffffffffff1673ffffffffffffffffffffffffffffffffffffffff168152602001906001019080831161015f575b5050505050905090565b6000600460008473ffffffffffffffffffffffffffffffffffffffff1673ffffffffffffffffffffffffffffffffffffffff16815260200190815260200160002060008373ffffffffffffffffffffffffffffffffffffffff1673ffffffffffffffffffffffffffffffffffffffff16815260200190815260200160002060009054906101000a900463ffffffff16905092915050565b600080600260008473ffffffffffffffffffffffffffffffffffffffff1673ffffffffffffffffffffffffffffffffffffffff16815260200190815260200160002060009054906101000a900460030b60030b136102a95760006102f7565b600260008373ffffffffffffffffffffffffffffffffffffffff1673ffffffffffffffffffffffffffffffffffffffff16815260200190815260200160002060009054906101000a900460030b5b9050919050565b60606000600360008473ffffffffffffffffffffffffffffffffffffffff1673ffffffffffffffffffffffffffffffffffffffff16815260200190815260200160002060009054906101000a900463ffffffff1663ffffffff1667ffffffffffffffff811115610371576103706111b3565b5b60405190808252806020026020018201604052801561039f5781602001602082028036833780820191505090505b5090506000805b6000805490508163ffffffff161015610550576000600460008773ffffffffffffffffffffffffffffffffffffffff1673ffffffffffffffffffffffffffffffffffffffff1681526020019081526020016000206000808463ffffffff1681548110610415576104146111e2565b5b9060005260206000200160009054906101000a900473ffffffffffffffffffffffffffffffffffffffff1673ffffffffffffffffffffffffffffffffffffffff1673ffffffffffffffffffffffffffffffffffffffff16815260200190815260200160002060009054906101000a900463ffffffff1663ffffffff161461053d5760008163ffffffff16815481106104b0576104af6111e2565b5b9060005260206000200160009054906101000a900473ffffffffffffffffffffffffffffffffffffffff16838363ffffffff16815181106104f4576104f36111e2565b5b602002602001019073ffffffffffffffffffffffffffffffffffffffff16908173ffffffffffffffffffffffffffffffffffffffff1681525050818061053990611240565b9250505b808061054890611240565b9150506103a6565b508192505050919050565b60003390508473ffffffffffffffffffffffffffffffffffffffff168173ffffffffffffffffffffffffffffffffffffffff16036105ce576040517f08c379a00000000000000000000000000000000000000000000000000000000081526004016105c5906112ef565b60405180910390fd5b600073ffffffffffffffffffffffffffffffffffffffff168573ffffffffffffffffffffffffffffffffffffffff160361063d576040517f08c379a00000000000000000000000000000000000000000000000000000000081526004016106349061135b565b60405180910390fd5b61064881868661090a565b61065181610bd9565b61065a85610bd9565b6000838390501115610903578282600081811061067a576106796111e2565b5b905060200201602081019061068f9190611081565b73ffffffffffffffffffffffffffffffffffffffff168573ffffffffffffffffffffffffffffffffffffffff16146106fc576040517f08c379a00000000000000000000000000000000000000000000000000000000081526004016106f3906113ed565b60405180910390fd5b828260018585905061070e9190611417565b81811061071e5761071d6111e2565b5b90506020020160208101906107339190611081565b73ffffffffffffffffffffffffffffffffffffffff168173ffffffffffffffffffffffffffffffffffffffff16146107a0576040517f08c379a0000000000000000000000000000000000000000000000000000000008152600401610797906114bd565b60405180910390fd5b600084905060005b6001858590506107b89190611417565b8163ffffffff16101561086a57600061083786868463ffffffff168181106107e3576107e26111e2565b5b90506020020160208101906107f89190611081565b878760018661080791906114dd565b63ffffffff1681811061081d5761081c6111e2565b5b90506020020160208101906108329190611081565b6101b3565b90508263ffffffff168163ffffffff16106108525782610854565b805b925050808061086290611240565b9150506107a8565b50600082905060005b858590508163ffffffff1610156108ff576108bc8287878463ffffffff168181106108a1576108a06111e2565b5b90506020020160208101906108b69190611081565b85610ce8565b85858263ffffffff168181106108d5576108d46111e2565b5b90506020020160208101906108ea9190611081565b915080806108f790611240565b915050610873565b5050505b5050505050565b6000600460008573ffffffffffffffffffffffffffffffffffffffff1673ffffffffffffffffffffffffffffffffffffffff16815260200190815260200160002060008473ffffffffffffffffffffffffffffffffffffffff1673ffffffffffffffffffffffffffffffffffffffff16815260200190815260200160002060009054906101000a900463ffffffff1663ffffffff1603610a2357600360008473ffffffffffffffffffffffffffffffffffffffff1673ffffffffffffffffffffffffffffffffffffffff168152602001908152602001600020600081819054906101000a900463ffffffff1680929190610a0390611240565b91906101000a81548163ffffffff021916908363ffffffff160217905550505b80600460008573ffffffffffffffffffffffffffffffffffffffff1673ffffffffffffffffffffffffffffffffffffffff16815260200190815260200160002060008473ffffffffffffffffffffffffffffffffffffffff1673ffffffffffffffffffffffffffffffffffffffff16815260200190815260200160002060008282829054906101000a900463ffffffff16610abe91906114dd565b92506101000a81548163ffffffff021916908363ffffffff16021790555080600260008573ffffffffffffffffffffffffffffffffffffffff1673ffffffffffffffffffffffffffffffffffffffff16815260200190815260200160002060008282829054906101000a900460030b610b379190611522565b92506101000a81548163ffffffff021916908360030b63ffffffff16021790555080600260008473ffffffffffffffffffffffffffffffffffffffff1673ffffffffffffffffffffffffffffffffffffffff16815260200190815260200160002060008282829054906101000a900460030b610bb3919061157e565b92506101000a81548163ffffffff021916908360030b63ffffffff160217905550505050565b600160008273ffffffffffffffffffffffffffffffffffffffff1673ffffffffffffffffffffffffffffffffffffffff16815260200190815260200160002060009054906101000a900460ff16610ce55760018060008373ffffffffffffffffffffffffffffffffffffffff1673ffffffffffffffffffffffffffffffffffffffff16815260200190815260200160002060006101000a81548160ff0219169083151502179055506000819080600181540180825580915050600190039060005260206000200160009091909190916101000a81548173ffffffffffffffffffffffffffffffffffffffff021916908373ffffffffffffffffffffffffffffffffffffffff1602179055505b50565b80600460008573ffffffffffffffffffffffffffffffffffffffff1673ffffffffffffffffffffffffffffffffffffffff16815260200190815260200160002060008473ffffffffffffffffffffffffffffffffffffffff1673ffffffffffffffffffffffffffffffffffffffff16815260200190815260200160002060008282829054906101000a900463ffffffff16610d8391906115da565b92506101000a81548163ffffffff021916908363ffffffff1602179055506000600460008573ffffffffffffffffffffffffffffffffffffffff1673ffffffffffffffffffffffffffffffffffffffff16815260200190815260200160002060008473ffffffffffffffffffffffffffffffffffffffff1673ffffffffffffffffffffffffffffffffffffffff16815260200190815260200160002060009054906101000a900463ffffffff1663ffffffff1603610eba57600360008473ffffffffffffffffffffffffffffffffffffffff1673ffffffffffffffffffffffffffffffffffffffff168152602001908152602001600020600081819054906101000a900463ffffffff1680929190610e9a90611612565b91906101000a81548163ffffffff021916908363ffffffff160217905550505b505050565b600081519050919050565b600082825260208201905092915050565b6000819050602082019050919050565b600073ffffffffffffffffffffffffffffffffffffffff82169050919050565b6000610f1682610eeb565b9050919050565b610f2681610f0b565b82525050565b6000610f388383610f1d565b60208301905092915050565b6000602082019050919050565b6000610f5c82610ebf565b610f668185610eca565b9350610f7183610edb565b8060005b83811015610fa2578151610f898882610f2c565b9750610f9483610f44565b925050600181019050610f75565b5085935050505092915050565b60006020820190508181036000830152610fc98184610f51565b905092915050565b600080fd5b600080fd5b610fe481610f0b565b8114610fef57600080fd5b50565b60008135905061100181610fdb565b92915050565b6000806040838503121561101e5761101d610fd1565b5b600061102c85828601610ff2565b925050602061103d85828601610ff2565b9150509250929050565b600063ffffffff82169050919050565b61106081611047565b82525050565b600060208201905061107b6000830184611057565b92915050565b60006020828403121561109757611096610fd1565b5b60006110a584828501610ff2565b91505092915050565b6110b781611047565b81146110c257600080fd5b50565b6000813590506110d4816110ae565b92915050565b600080fd5b600080fd5b600080fd5b60008083601f8401126110ff576110fe6110da565b5b8235905067ffffffffffffffff81111561111c5761111b6110df565b5b602083019150836020820283011115611138576111376110e4565b5b9250929050565b6000806000806060858703121561115957611158610fd1565b5b600061116787828801610ff2565b9450506020611178878288016110c5565b935050604085013567ffffffffffffffff81111561119957611198610fd6565b5b6111a5878288016110e9565b925092505092959194509250565b7f4e487b7100000000000000000000000000000000000000000000000000000000600052604160045260246000fd5b7f4e487b7100000000000000000000000000000000000000000000000000000000600052603260045260246000fd5b7f4e487b7100000000000000000000000000000000000000000000000000000000600052601160045260246000fd5b600061124b82611047565b915063ffffffff820361126157611260611211565b5b600182019050919050565b600082825260208201905092915050565b7f446562746f722063616e6e6f74206265207468652073616d652061732063726560008201527f6469746f72210000000000000000000000000000000000000000000000000000602082015250565b60006112d960268361126c565b91506112e48261127d565b604082019050919050565b60006020820190508181036000830152611308816112cc565b9050919050565b7f4372656469746f722063616e6e6f7420626520656d7074792100000000000000600082015250565b600061134560198361126c565b91506113508261130f565b602082019050919050565b6000602082019050818103600083015261137481611338565b9050919050565b7f4372656469746f722073686f756c64206265206174207468652073746172742060008201527f6f66207468652070617468000000000000000000000000000000000000000000602082015250565b60006113d7602b8361126c565b91506113e28261137b565b604082019050919050565b60006020820190508181036000830152611406816113ca565b9050919050565b6000819050919050565b60006114228261140d565b915061142d8361140d565b925082820390508181111561144557611444611211565b5b92915050565b7f446562746f722073686f756c642062652061742074686520656e64206f66207460008201527f6865207061746800000000000000000000000000000000000000000000000000602082015250565b60006114a760278361126c565b91506114b28261144b565b604082019050919050565b600060208201905081810360008301526114d68161149a565b9050919050565b60006114e882611047565b91506114f383611047565b9250828201905063ffffffff81111561150f5761150e611211565b5b92915050565b60008160030b9050919050565b600061152d82611515565b915061153883611515565b925082820190507fffffffffffffffffffffffffffffffffffffffffffffffffffffffff800000008112637fffffff8213171561157857611577611211565b5b92915050565b600061158982611515565b915061159483611515565b92508282039050637fffffff81137fffffffffffffffffffffffffffffffffffffffffffffffffffffffff80000000821217156115d4576115d3611211565b5b92915050565b60006115e582611047565b91506115f083611047565b9250828203905063ffffffff81111561160c5761160b611211565b5b92915050565b600061161d82611047565b9150600082036116305761162f611211565b5b60018203905091905056fea2646970667358221220f97686f17130743e0f8e67eeab3a648b9c14d0bf1f2e7c6e788e9ad502a103e464736f6c63430008110033",
  "linkReferences": {},
  "deployedLinkReferences": {}
}