{
  "_format": "hh-sol-artifact-1",
  "contractName": "Splitwise",
  "sourceName": "contracts/mycontract.sol",
  "abi": [
    {
      "inputs": [
        {
          "internalType": "address",
          "name": "creditor",
          "type": "address"
        },
        {
          "internalType": "uint32",
          "name": "amount",
          "type": "uint32"
        },
        {
          "internalType": "address[]",
          "name": "path",
          "type": "address[]"
        }
      ],
      "name": "add_IOU",
      "outputs": [],
      "stateMutability": "nonpayable",
      "type": "function"
    },
    {
      "inputs": [
        {
          "internalType": "address",
          "name": "debtor",
          "type": "address"
        }
      ],
      "name": "getCreditors",
      "outputs": [
        {
          "internalType": "address[]",
          "name": "",
          "type": "address[]"
        }
      ],
      "stateMutability": "view",
      "type": "function"
    },
    {
      "inputs": [
        {
          "internalType": "address",
          "name": "user",
          "type": "address"
        }
      ],
      "name": "getTotalOwed",
      "outputs": [
        {
          "internalType": "uint32",
          "name": "",
          "type": "uint32"
        }
      ],
      "stateMutability": "view",
      "type": "function"
    },
    {
      "inputs": [],
      "name": "getUsers",
      "outputs": [
        {
          "internalType": "address[]",
          "name": "",
          "type": "address[]"
        }
      ],
      "stateMutability": "view",
      "type": "function"
    },
    {
      "inputs": [
        {
          "internalType": "address",
          "name": "debtor",
          "type": "address"
        },
        {
          "internalType": "address",
          "name": "creditor",
          "type": "address"
        }
      ],
      "name": "lookup",
      "outputs": [
        {
          "internalType": "uint32",
          "name": "",
          "type": "uint32"
        }
      ],
      "stateMutability": "view",
      "type": "function"
    }
  ],
  "bytecode": "0x608060405234801561001057600080fd5b50611726806100206000396000f3fe608060405234801561001057600080fd5b50600436106100565760003560e01c8062ce8e3e1461005b578063713584a61461007957806373851075146100a95780638d8bea50146100d9578063dd033b8d14610109575b600080fd5b610063610125565b6040516100709190610ff8565b60405180910390f35b610093600480360381019061008e9190611050565b6101b3565b6040516100a091906110af565b60405180910390f35b6100c360048036038101906100be91906110ca565b61024a565b6040516100d091906110af565b60405180910390f35b6100f360048036038101906100ee91906110ca565b6102fe565b6040516101009190610ff8565b60405180910390f35b610123600480360381019061011e9190611188565b61055b565b005b606060008054806020026020016040519081016040528092919081815260200182805480156101a957602002820191906000526020600020905b8160009054906101000a900473ffffffffffffffffffffffffffffffffffffffff1673ffffffffffffffffffffffffffffffffffffffff168152602001906001019080831161015f575b5050505050905090565b6000600460008473ffffffffffffffffffffffffffffffffffffffff1673ffffffffffffffffffffffffffffffffffffffff16815260200190815260200160002060008373ffffffffffffffffffffffffffffffffffffffff1673ffffffffffffffffffffffffffffffffffffffff16815260200190815260200160002060009054906101000a900463ffffffff16905092915050565b600080600260008473ffffffffffffffffffffffffffffffffffffffff1673ffffffffffffffffffffffffffffffffffffffff16815260200190815260200160002060009054906101000a900460030b60030b136102a95760006102f7565b600260008373ffffffffffffffffffffffffffffffffffffffff1673ffffffffffffffffffffffffffffffffffffffff16815260200190815260200160002060009054906101000a900460030b5b9050919050565b60606000600360008473ffffffffffffffffffffffffffffffffffffffff1673ffffffffffffffffffffffffffffffffffffffff16815260200190815260200160002060009054906101000a900463ffffffff1663ffffffff1667ffffffffffffffff811115610371576103706111fc565b5b60405190808252806020026020018201604052801561039f5781602001602082028036833780820191505090505b5090506000805b6000805490508163ffffffff161015610550576000600460008773ffffffffffffffffffffffffffffffffffffffff1673ffffffffffffffffffffffffffffffffffffffff1681526020019081526020016000206000808463ffffffff16815481106104155761041461122b565b5b9060005260206000200160009054906101000a900473ffffffffffffffffffffffffffffffffffffffff1673ffffffffffffffffffffffffffffffffffffffff1673ffffffffffffffffffffffffffffffffffffffff16815260200190815260200160002060009054906101000a900463ffffffff1663ffffffff161461053d5760008163ffffffff16815481106104b0576104af61122b565b5b9060005260206000200160009054906101000a900473ffffffffffffffffffffffffffffffffffffffff16838363ffffffff16815181106104f4576104f361122b565b5b602002602001019073ffffffffffffffffffffffffffffffffffffffff16908173ffffffffffffffffffffffffffffffffffffffff1681525050818061053990611289565b9250505b808061054890611289565b9150506103a6565b508192505050919050565b60003390508473ffffffffffffffffffffffffffffffffffffffff168173ffffffffffffffffffffffffffffffffffffffff16036105ce576040517f08c379a00000000000000000000000000000000000000000000000000000000081526004016105c590611338565b60405180910390fd5b600073ffffffffffffffffffffffffffffffffffffffff168573ffffffffffffffffffffffffffffffffffffffff160361063d576040517f08c379a0000000000000000000000000000000000000000000000000000000008152600401610634906113a4565b60405180910390fd5b60008463ffffffff1611610686576040517f08c379a000000000000000000000000000000000000000000000000000000000815260040161067d90611410565b60405180910390fd5b610691818686610953565b61069a81610ba6565b6106a385610ba6565b600083839050111561094c57828260008181106106c3576106c261122b565b5b90506020020160208101906106d891906110ca565b73ffffffffffffffffffffffffffffffffffffffff168573ffffffffffffffffffffffffffffffffffffffff1614610745576040517f08c379a000000000000000000000000000000000000000000000000000000000815260040161073c906114a2565b60405180910390fd5b828260018585905061075791906114cc565b8181106107675761076661122b565b5b905060200201602081019061077c91906110ca565b73ffffffffffffffffffffffffffffffffffffffff168173ffffffffffffffffffffffffffffffffffffffff16146107e9576040517f08c379a00000000000000000000000000000000000000000000000000000000081526004016107e090611572565b60405180910390fd5b600084905060005b60018585905061080191906114cc565b8163ffffffff1610156108b357600061088086868463ffffffff1681811061082c5761082b61122b565b5b905060200201602081019061084191906110ca565b87876001866108509190611592565b63ffffffff168181106108665761086561122b565b5b905060200201602081019061087b91906110ca565b6101b3565b90508263ffffffff168163ffffffff161061089b578261089d565b805b92505080806108ab90611289565b9150506107f1565b50600082905060005b858590508163ffffffff161015610948576109058287878463ffffffff168181106108ea576108e961122b565b5b90506020020160208101906108ff91906110ca565b85610cb5565b85858263ffffffff1681811061091e5761091d61122b565b5b905060200201602081019061093391906110ca565b9150808061094090611289565b9150506108bc565b5050505b5050505050565b6000600460008573ffffffffffffffffffffffffffffffffffffffff1673ffffffffffffffffffffffffffffffffffffffff16815260200190815260200160002060008473ffffffffffffffffffffffffffffffffffffffff1673ffffffffffffffffffffffffffffffffffffffff16815260200190815260200160002060009054906101000a900463ffffffff1663ffffffff1603610a6c57600360008473ffffffffffffffffffffffffffffffffffffffff1673ffffffffffffffffffffffffffffffffffffffff168152602001908152602001600020600081819054906101000a900463ffffffff1680929190610a4c90611289565b91906101000a81548163ffffffff021916908363ffffffff160217905550505b80600460008573ffffffffffffffffffffffffffffffffffffffff1673ffffffffffffffffffffffffffffffffffffffff16815260200190815260200160002060008473ffffffffffffffffffffffffffffffffffffffff1673ffffffffffffffffffffffffffffffffffffffff16815260200190815260200160002060008282829054906101000a900463ffffffff16610b079190611592565b92506101000a81548163ffffffff021916908363ffffffff16021790555080600260008573ffffffffffffffffffffffffffffffffffffffff1673ffffffffffffffffffffffffffffffffffffffff16815260200190815260200160002060008282829054906101000a900460030b610b8091906115d7565b92506101000a81548163ffffffff021916908360030b63ffffffff160217905550505050565b600160008273ffffffffffffffffffffffffffffffffffffffff1673ffffffffffffffffffffffffffffffffffffffff16815260200190815260200160002060009054906101000a900460ff16610cb25760018060008373ffffffffffffffffffffffffffffffffffffffff1673ffffffffffffffffffffffffffffffffffffffff16815260200190815260200160002060006101000a81548160ff0219169083151502179055506000819080600181540180825580915050600190039060005260206000200160009091909190916101000a81548173ffffffffffffffffffffffffffffffffffffffff021916908373ffffffffffffffffffffffffffffffffffffffff1602179055505b50565b80600460008573ffffffffffffffffffffffffffffffffffffffff1673ffffffffffffffffffffffffffffffffffffffff16815260200190815260200160002060008473ffffffffffffffffffffffffffffffffffffffff1673ffffffffffffffffffffffffffffffffffffffff16815260200190815260200160002060008282829054906101000a900463ffffffff16610d509190611633565b92506101000a81548163ffffffff021916908363ffffffff16021790555080600260008473ffffffffffffffffffffffffffffffffffffffff1673ffffffffffffffffffffffffffffffffffffffff16815260200190815260200160002060008282829054906101000a900460030b610dc9919061166b565b92506101000a81548163ffffffff021916908360030b63ffffffff1602179055506000600460008573ffffffffffffffffffffffffffffffffffffffff1673ffffffffffffffffffffffffffffffffffffffff16815260200190815260200160002060008473ffffffffffffffffffffffffffffffffffffffff1673ffffffffffffffffffffffffffffffffffffffff16815260200190815260200160002060009054906101000a900463ffffffff1663ffffffff1603610f0357600360008473ffffffffffffffffffffffffffffffffffffffff1673ffffffffffffffffffffffffffffffffffffffff168152602001908152602001600020600081819054906101000a900463ffffffff1680929190610ee3906116c7565b91906101000a81548163ffffffff021916908363ffffffff160217905550505b505050565b600081519050919050565b600082825260208201905092915050565b6000819050602082019050919050565b600073ffffffffffffffffffffffffffffffffffffffff82169050919050565b6000610f5f82610f34565b9050919050565b610f6f81610f54565b82525050565b6000610f818383610f66565b60208301905092915050565b6000602082019050919050565b6000610fa582610f08565b610faf8185610f13565b9350610fba83610f24565b8060005b83811015610feb578151610fd28882610f75565b9750610fdd83610f8d565b925050600181019050610fbe565b5085935050505092915050565b600060208201905081810360008301526110128184610f9a565b905092915050565b600080fd5b600080fd5b61102d81610f54565b811461103857600080fd5b50565b60008135905061104a81611024565b92915050565b600080604083850312156110675761106661101a565b5b60006110758582860161103b565b92505060206110868582860161103b565b9150509250929050565b600063ffffffff82169050919050565b6110a981611090565b82525050565b60006020820190506110c460008301846110a0565b92915050565b6000602082840312156110e0576110df61101a565b5b60006110ee8482850161103b565b91505092915050565b61110081611090565b811461110b57600080fd5b50565b60008135905061111d816110f7565b92915050565b600080fd5b600080fd5b600080fd5b60008083601f84011261114857611147611123565b5b8235905067ffffffffffffffff81111561116557611164611128565b5b6020830191508360208202830111156111815761118061112d565b5b9250929050565b600080600080606085870312156111a2576111a161101a565b5b60006111b08782880161103b565b94505060206111c18782880161110e565b935050604085013567ffffffffffffffff8111156111e2576111e161101f565b5b6111ee87828801611132565b925092505092959194509250565b7f4e487b7100000000000000000000000000000000000000000000000000000000600052604160045260246000fd5b7f4e487b7100000000000000000000000000000000000000000000000000000000600052603260045260246000fd5b7f4e487b7100000000000000000000000000000000000000000000000000000000600052601160045260246000fd5b600061129482611090565b915063ffffffff82036112aa576112a961125a565b5b600182019050919050565b600082825260208201905092915050565b7f446562746f722063616e6e6f74206265207468652073616d652061732063726560008201527f6469746f72210000000000000000000000000000000000000000000000000000602082015250565b60006113226026836112b5565b915061132d826112c6565b604082019050919050565b6000602082019050818103600083015261135181611315565b9050919050565b7f4372656469746f722063616e6e6f7420626520656d7074792100000000000000600082015250565b600061138e6019836112b5565b915061139982611358565b602082019050919050565b600060208201905081810360008301526113bd81611381565b9050919050565b7f494f5520616d6f756e742073686f756c6420626520706f736974697665210000600082015250565b60006113fa601e836112b5565b9150611405826113c4565b602082019050919050565b60006020820190508181036000830152611429816113ed565b9050919050565b7f4372656469746f722073686f756c64206265206174207468652073746172742060008201527f6f66207468652070617468000000000000000000000000000000000000000000602082015250565b600061148c602b836112b5565b915061149782611430565b604082019050919050565b600060208201905081810360008301526114bb8161147f565b9050919050565b6000819050919050565b60006114d7826114c2565b91506114e2836114c2565b92508282039050818111156114fa576114f961125a565b5b92915050565b7f446562746f722073686f756c642062652061742074686520656e64206f66207460008201527f6865207061746800000000000000000000000000000000000000000000000000602082015250565b600061155c6027836112b5565b915061156782611500565b604082019050919050565b6000602082019050818103600083015261158b8161154f565b9050919050565b600061159d82611090565b91506115a883611090565b9250828201905063ffffffff8111156115c4576115c361125a565b5b92915050565b60008160030b9050919050565b60006115e2826115ca565b91506115ed836115ca565b925082820190507fffffffffffffffffffffffffffffffffffffffffffffffffffffffff800000008112637fffffff8213171561162d5761162c61125a565b5b92915050565b600061163e82611090565b915061164983611090565b9250828203905063ffffffff8111156116655761166461125a565b5b92915050565b6000611676826115ca565b9150611681836115ca565b92508282039050637fffffff81137fffffffffffffffffffffffffffffffffffffffffffffffffffffffff80000000821217156116c1576116c061125a565b5b92915050565b60006116d282611090565b9150600082036116e5576116e461125a565b5b60018203905091905056fea2646970667358221220f4e9fe1b3d0ed2c493bfc0519dd292021900db807f1997d754a9f277f71d8f1f64736f6c63430008110033",
  "linkReferences": {},
  "deployedLinkReferences": {}
}